:0400000099EF34F050
:10691600000E9EBA010E12009EAAFED7AE501200BD
:10692600016EACA2FED701C0ADFF12000101A96B3A
:10693600A86B406A3F6A000EF86E000186EF35F0DC
:10694600010EBDEC34F0060E036E300EE82EFED7B7
:10695600032EFCD700D01200046E04508009BDEC53
:1069660034F0060E036E300EE82EFED7032EFCD74B
:1069760000D01200026E02C08AFF8C928C801A0E22
:10698600016EF80EE82EFED7012EFCD700D08C90B3
:106996001200026E02C08AFF8C828C801A0E016E73
:1069A600F80EE82EFED7012EFCD700D08C901200F0
:1069B6000C6E0C50016E026A036A8E0E046E000E97
:1069C600056EF7EC36F001C009F002C00AF003C00C
:1069D6000BF0120001500302F3CF05F0F4CF06F0DE
:1069E60001500402F350062602500302F350062615
:1069F60005C001F006C002F01200820E036EDE0E24
:106A0600E82EFED7032EFCD7380EBDEC34F00F0E61
:106A1600BDEC34F0020EBDEC34F0010EBDEC34F0EA
:106A26001200046E4C0E0418D8A403D0100EBDEC50
:106A360034F0520E0418D8A403D0940EBDEC34F0F2
:106A4600060E036E300EE82EFED7032EFCD700D0BE
:106A56001200000E0C6E0AAE06D0096C0A1ED8B0E3
:106A66000A2A010E0C6E09C001F00AC002F0036A80
:106A76008E0E046E0CC005F0F7EC36F001C009F07E
:106A860002C00AF003C00BF01200026E000E046E84
:106A96000150D8B415D0010E036E03D0D89001363C
:106AA600032A01AEFBD7D89004360150025CD8A069
:106AB60003D00150025E0480D8900132032EF3D732
:106AC600045012000A500B10D8B418D0010E0C6EE8
:106AD60004D0D8900A360B360C2A0BAEFAD70A50D9
:106AE600085C0B500958D8A004D00A50085E0B5019
:106AF600095AD8900B320A320C2EF1D708C008F08A
:106B060009C009F012007E0ED36E000E936E9590AA
:106B1600959200EC35F0800E0F6E250E106E000E6D
:106B2600116E000E126E2EEC38F05E0E036E7F0EA6
:106B3600046E04EC36F0150E3E6E4B0E3D6EBE0E28
:106B4600E82EFED73D2EFCD73E2EFAD700D0F2EC2B
:106B56003AF0FDD7000E066E000E056E03500410C7
:106B6600D8B41CD0010E076E04D0D8900336043674
:106B7600072A04AEFAD7D890053606360350015CCC
:106B860004500258D8A005D00350015E0450025AA2
:106B96000580D89004320332072EEDD705C001F0E8
:106BA60006C002F012001AC001F01BC002F01CC0A1
:106BB60003F0200E046E000E056E79EC36F021BE51
:106BC600120021501DE1150E205CD8B012001AC02B
:106BD60001F01BC002F01CC003F0B4EC37F001C09A
:106BE60010F002C011F003C012F004C013F03DEC27
:106BF60036F010C01DF011C01EF012C01FF01200BA
:106C06001200000E086E000E076E1AD007500324FD
:106C1600056E08500420066E05C0F6FF06C0F7FF95
:106C2600F86A070EF76403D00800F55005D0F6CFD2
:106C3600D9FFF7CFDAFFDF50CCEC34F0074A082A49
:106C460007500324056E08500420066E05C0F6FFA3
:106C560006C0F7FFF86A070EF76403D00800F55080
:106C660005D0F6CFD9FFF7CFDAFFDF500009D8B449
:106C76001200CCD7000E196E8E0E186E13AE11D000
:106C8600131E121E111E106C000E11221222132248
:106C9600010E196E06D0D89013321232113210320C
:106CA600182A000E1014146E000E1114156E000E24
:106CB6001214166EFF0E1314176E145015101610BC
:106CC6001710D8A4E8D710C001F011C002F012C006
:106CD60003F018C004F019C005F0F7EC36F001C057
:106CE60010F002C011F003C012F0120001500210A1
:106CF6000310D8A409D004C0D9FF05C0DAFF000EDE
:106D0600DE6E000EDD6E120003507F0B066E076A04
:106D1600D8900636073604C0D9FF05C0DAFF06C08C
:106D2600DEFF07C0DDFF02AE03D0066A062A01D0E9
:106D3600066A065004C0D9FF05C0DAFFDE12000E4F
:106D4600DD1204C0D9FF05C0DAFF820EDE26FF0E73
:106D5600DD2203800382038403860388038A039C5F
:106D6600029E1200000E066E04AE06D0036C041ED0
:106D7600D8B0042A010E066E02AE06D0016C021EC1
:106D8600D8B0022A010E061A000E086E000E076E13
:106D960003500410D8B41CD0010E056E04D0D89050
:106DA60003360436052A04AEFAD7D89007360836D5
:106DB6000350015C04500258D8A005D00350015E70
:106DC6000450025A0780D89004320332052EEDD7BC
:106DD6000650D8B404D0076C081ED8B0082A07C0DD
:106DE60001F008C002F012000450D8B405D00150DA
:106DF60002100310D8A40CD0000E016E000E026E15
:106E0600000E036E1200042AD890033202320132B9
:106E1600000E0114066E000E0214076EFE0E031419
:106E2600086E065007100810D8B40CD0ECD7042A08
:106E3600010E0126000E0222000E0322D890033214
:106E460002320132000E0114066E000E0214076EA5
:106E5600FF0E0314086E065007100810D8B406D0AB
:106E6600E6D70406D89001360236033602BE03D0B2
:106E7600020E0460F6D704A0029ED8900432045095
:106E860003120550D8A4038E01C001F002C002F01F
:106E960003C003F01200000E0A6E08AE0AD0081EE8
:106EA600071E061E056C000E062207220822010E8A
:106EB6000A6E04AE0AD0041E031E021E016C000EEA
:106EC600022203220422010E0A1A000E0B6E000E85
:106ED6000C6E000E0D6E000E0E6E0550061007109D
:106EE6000810D8B42AD0010E096E06D0D8900536FF
:106EF600063607360836092A08AEF8D7D8900B3674
:106F06000C360D360E360550015C065002580750F9
:106F1600035808500458D8A009D00550015E065001
:106F2600025A0750035A0850045A0B80D890083268
:106F3600073206320532092EE1D70A50D8B408D0F6
:106F46000E1E0D1E0C1E0B6C000E0C220D220E22A8
:106F56000BC001F00CC002F00DC003F00EC004F02F
:106F6600120003C005F0066A076A0234053601E31B
:106F7600068005500F6E0F50D8A409D0000E016E82
:106F8600000E026E000E036E000E046E1200170E47
:106F9600056E01C006F002C007F003C008F0052820
:106FA600096E04D0D890083207320632092EFAD775
:106FB60006500A6E028EFF0E0116FF0E0216000E16
:106FC600031601500B6E02500C6E03500D6E0E6AC6
:106FD6008E0E0F5E0FAE16D00F50800A8F0FD8B0F0
:106FE60009D0000E016E000E026E000E036E000E3A
:106FF600046E1200D8900E320D320C320B320F3E58
:10700600F9D715D0170E0F640FD0000E016E000EC3
:10701600026E000E036E000E046E1200D8900B3640
:107026000C360D360E360F060F50D8A4F7D70A5079
:10703600D8B408D00E1E0D1E0C1E0B6C000E0C22B2
:107046000D220E220BC001F00CC002F00DC003F0A1
:107056000EC004F012000FC013F010C014F011C0DF
:1070660015F012C016F0060ED890133614361536E3
:107076001636E82EF9D7131E141E151E161E132AD1
:10708600000E142215221622000E1324016E120E73
:107096001420026E7A0E1520036E000E1620046E62
:1070A6000FC017F010C018F011C019F012C01AF076
:1070B600060ED8901736183619361A36E82EF9D72E
:1070C60017C005F018C006F019C007F01AC008F07E
:1070D6004EEC37F001C01BF002C01CF01C04D8A017
:1070E60044D00FC013F010C014F011C015F012C038
:1070F60016F0040ED8901336143615361636E82ECA
:10710600F9D7131E141E151E161E132A000E14225E
:1071160015221622000E1324016E120E1420026E82
:107126007A0E1520036E000E1620046E0FC017F09F
:1071360010C018F011C019F012C01AF0040ED89041
:107146001736183619361A36E82EF9D717C005F04D
:1071560018C006F019C007F01AC008F04EEC37F058
:1071660001C01BF002C01CF0AC841C04D8B0120095
:107176001BC0AFFFAC98AB8E948E948CAB88AC8A58
:107186001200110E146E000E156E8CD0250E1A18F4
:10719600D8B409D00DC0D9FF0EC0DAFF1AC0DFFF80
:1071A6000D4A0E2A7FD0000E166E0FC0F6FF10C0D5
:1071B600F7FF0F4A102A0800F5CF1AF01A50000AF6
:1071C600D8B47CD0640AD8B403D00D0AD8A46AD047
:1071D60014C0D9FF15C0DAFFDECF18F0DDCF19F0E5
:1071E600020E1426000E152219AE06D0030E161234
:1071F600186C191ED8B0192A010E1A6E050E1A1827
:10720600D8B412D01A50020DB70EF324F66E7E0EC5
:10721600F420F76E0900F550185C0900F55019586E
:10722600D8A002D01A2AEAD716C013F0030E1316F6
:10723600D8B408D00DC0D9FF0EC0DAFF2D0EDF6E10
:107246000D4A0E2A1AC017F029D01750020DB70E94
:10725600F324F66E7E0EF420F76E0900F5CF03F0E8
:107266000A00F5CF04F018C001F019C002F0ADEC29
:1072760035F001C008F002C009F0000E0B6E0A0ED0
:107286000A6E65EC35F00850300F1A6E0DC0D9FF46
:107296000EC0DAFF1AC0DFFF0D4A0E2A170617289E
:1072A600D8A4D3D70FC0F6FF10C0F7FF0F4A102A95
:1072B6000800F5CF1AF01A50D8A468D70DC0D9FF28
:1072C6000EC0DAFF000EDF6E1200000E046E000E16
:1072D6008A6E0F0E936E000E036E000E026E03BED4
:1072E60008D0035005E1040E025CD8B0A4D001D04A
:1072F600A2D08A8E0D0E016EFC0EE82EFED7012E50
:10730600FCD781A005D0410E046E81A094D0FDD794
:1073160081A205D0330E046E81A28DD0FDD781A443
:1073260005D0320E046E81A486D0FDD781A605D085
:10733600310E046E81A67FD0FDD78A9E8A8C0D0EF3
:10734600016EFC0EE82EFED7012EFCD781A005D0DB
:10735600420E046E81A06FD0FDD781A205D0360EF5
:10736600046E81A268D0FDD781A405D0350E046EC7
:1073760081A461D0FDD781A605D0340E046E81A606
:107386005AD0FDD78A9C8A8A0D0E016EFC0EE82E15
:10739600FED7012EFCD781A005D0430E046E81A036
:1073A6004AD0FDD781A205D0390E046E81A243D002
:1073B600FDD781A405D0380E046E81A43CD0FDD73C
:1073C60081A605D0370E046E81A635D0FDD78A9AE0
:1073D6008A880D0E016EFC0EE82EFED7012EFCD714
:1073E60081A005D0440E046E81A025D0FDD781A2D0
:1073F60005D0230E046E81A21ED0FDD781A405D030
:10740600300E046E81A417D0FDD781A605D02A0EB2
:10741600046E81A610D0FDD78A980D0E016EFC0E63
:10742600E82EFED7012EFCD7024A032A03BE61D7F7
:10743600035001E158D7000E8A6E000E936E045079
:10744600120009C012F00AC013F0000E116E000EF1
:10745600106EA3EC34F0500E036E7F0E046E04EC37
:1074660036F0630E93EC34F009D068EC39F0420A3A
:10747600D8A404D0730E93EC34F08ED08BEC34F099
:107486000009D8A489D0F1D710501224D96E115012
:107496001320DA6E8FEC34F0DF6E104A112AFF0EDD
:1074A6000B6EFF0E0C6E10C00DF011C00EF00B50DF
:1074B6000D260C500E220D501224D96E0E5013209C
:1074C600DA6E640EDE18D8A4DFD7FF0E0B6EFF0E41
:1074D6000C6E10C00DF011C00EF00B500D260C50A6
:1074E6000E220D501224D96E0E501320DA6E000EA5
:1074F600DF6EA3EC34F0D00E036E7E0E046E04EC49
:1075060036F0400EAFEC34F0DF0E036E7F0E046EE5
:1075160004EC36F0150E0C6E4B0E0B6EBE0EE82EFE
:10752600FED70B2EFCD70C2EFAD700D0A3EC34F0E6
:10753600AC0E036E7F0E046E04EC36F0400EAFEC1C
:1075460034F012C003F013C004F004EC36F0F50E6C
:10755600036E7F0E046E04EC36F0150E0C6E4B0EA9
:107566000B6EBE0EE82EFED70B2EFCD70C2EFAD7CE
:1075760000D01DD0A3EC34F0860E036E7F0E046E91
:1075860004EC36F014D0A3EC34F0EE0E036E7F0E4E
:10759600046E04EC36F00BD08FEC34F0000AD8B44D
:1075A600F2D7640AD8B470D7010AD8B4E3D7150E57
:1075B6000C6E4B0E0B6EBE0EE82EFED70B2EFCD7B6
:1075C6000C2EFAD700D012C0D9FF13C0DAFFDF5055
:1075D6000B6E0C6A0BC009F00CC00AF01200C10E4B
:1075E600386E7E0E396E000E3C6E000E356E000E45
:1075F600346E02D0344A352A34503824266E35503B
:107606003920276E26C0F6FF27C0F7FF0800F55081
:107616000009D8A4EFD7A3EC34F0F10E036E7E0E6A
:10762600046E04EC36F0A8D0000E3B6E000E3A6EE7
:1076360089D0400EAFEC34F03A503824036E3B50FC
:107646003920046E04EC36F03A5000083424400F1A
:10765600AFEC34F0200ECCEC34F068EC39F03C6E34
:1076660064D00101A851A911D8B403D0C3EC3BF0F2
:1076760064D0A3EC34F0D60E036E7F0E046E04ECD9
:1076860036F0400EAFEC34F06C0E036E7F0E046ED7
:1076960004EC36F0150E276E4B0E266EBE0EE82E47
:1076A600FED7262EFCD7272EFAD700D046D0000EBE
:1076B6000101A96F000EA86F2A0E096E000E0A6E50
:1076C60024EC3AF009502A6E000E376E000E366E24
:1076D6001FD0A8C101F0A9C102F0000E046E0A0E67
:1076E600036EEDEC34F02A0E3624D96E000E3720E8
:1076F600DA6EDF50266E26500126000E0222D00ECC
:1077060001240101A86FFF0E0220A96F364A372A0D
:107716002A0E3624D96E000E3720DA6EDF50D8B422
:107726000CD0D7D7000E3C6E08D03C50310AD8B4E6
:1077360098D7030AD8B4BBD7F5D73C50D8A419D0EC
:107746003A4A3B2A0D0E3A24266E000E3B20276E3F
:1077560038C028F039C029F026502826275029227B
:1077660028C0F6FF29C0F7FF0800F5500009D8A485
:1077760060D73C50D8A412003C50D8A4120054D76D
:10778600000E0101A76F000EA46FA3EC34F0330EB8
:10779600036E7F0E046E04EC36F0400EAFEC34F050
:1077A600B70E036E7F0E046E04EC36F044D068EC20
:1077B60039F00101A76F2F0EA76515D03A0EA76104
:1077C60012D0A451D8A404D0300EA719D8B40BD027
:1077D600A751CCEC34F00A0E0101A403F350A46FB8
:1077E600A751D00FA427430EA719D8A41FD0A45180
:1077F600D8B41CD04C0E14EC35F0200ECCEC34F082
:107806004C0E14EC35F00A0E016E0101A45148EC41
:1078160035F00101A46FA451DBEC34F009C01AF075
:107826000AC01BF00BC01CF0D6EC35F0420E01016D
:10783600A719D8B405D0410E0101A719D8A4B7D706
:10784600420EA719D8A41ED0A3EC34F0CC0E036EBA
:107856007F0E046E04EC36F0400EAFEC34F0C20E30
:10786600036E7F0E046E04EC36F0150E236E4B0E7F
:10787600226EBE0EE82EFED7222EFCD7232EFAD776
:1078860000D01200640E0D6E010E0E6EF90E0F6E14
:107896007F0E106EA4C111F0126AC4EC38F0000E0F
:1078A6000101A66F000EA56F6BD1D890A535D96ED4
:1078B600A635DA6E000ED926010EDA22000EDE6E2D
:1078C600000EDD6E000EA76FA3EC34F0E70E036E1C
:1078D6007F0E046E04EC36F0060EAFEC34F08C0E20
:1078E6000D6E010E0E6EF90E0F6E7F0E106E010EEE
:1078F6000101A525116E000EA621126EC4EC38F00A
:107906008C0E036E010E046E04EC36F0FC0E036E54
:107916007F0E046E04EC36F0640E036E010E046EE8
:1079260004EC36F0400EAFEC34F0A00E036E7F0E82
:10793600046E04EC36F019D1000E0101A76F68EC55
:1079460039F00101A76F2F0EA765B1D03A0EA761D6
:10795600AED0D890A535D96EA635DA6E000ED926EA
:10796600010EDA22DE50DE10D8A404D0300EA7199C
:10797600D8B49DD0A751CCEC34F0D00E226EFF0EB9
:10798600236ED8900101A535D96EA635DA6E000EA4
:10799600D926010EDA22DECF01F0DDCF02F0000E8D
:1079A600046E0A0E036EEDEC34F00101A7510126B8
:1079B600000E02222250012623500222D890A5351D
:1079C600D96EA635DA6E000ED926010EDA2201C06E
:1079D600DEFF02C0DDFFD890A535D96EA635DA6E7A
:1079E600000ED926010EDA22DE50A85DA951800AC2
:1079F600246EDE50800A2458D8B059D0A3EC34F057
:107A0600230E036E7F0E046E04EC36F0D89001014F
:107A1600A535D96EA635DA6E000ED926010EDA2204
:107A2600000EDE6E000EDD6E150E236E4B0E226E00
:107A3600BE0EE82EFED7222EFCD7232EFAD700D074
:107A4600A3EC34F0E70E036E7F0E046E04EC36F002
:107A5600060EAFEC34F08C0E0D6E010E0E6EF90EA6
:107A66000F6E7F0E106E010E0101A525116E000E20
:107A7600A621126EC4EC38F08C0E036E010E046E55
:107A860004EC36F0FC0E036E7F0E046E04EC36F04A
:107A9600640E036E010E046E04EC36F0400EAFEC7D
:107AA60034F0A00E036E7F0E046E04EC36F0430E27
:107AB6000101A719D8A454D0D890A535D96EA635FA
:107AC600DA6E000ED926010EDA22010EDBBE48D090
:107AD600010EDB5003E1DE04D8A042D04C0E14ECBC
:107AE60035F0200ECCEC34F04C0E14EC35F0D8907A
:107AF6000101A535D96EA635DA6E000ED926010E1E
:107B0600DA22DECF01F0DDCF02F0000E046E0A0E9F
:107B1600036EB5EC36F0D8900101A535D96EA635C1
:107B2600DA6E000ED926010EDA2201C0DEFF02C08F
:107B3600DDFFD890A535D96EA635DA6E000ED926AA
:107B4600010EDA22DECF09F0DDCF0AF02CEC35F09B
:107B560009C01AF00AC01BF00BC01CF0D6EC35F0B9
:107B6600420E0101A719D8B405D0410E0101A7198B
:107B7600D8A4E2D6420EA719D8B40FD0A54BA62B8F
:107B8600A451226E236A2250A55DA651800A246E56
:107B96002350800A2458D8A088D6420EA719D8A404
:107BA6001ED0A3EC34F0CC0E036E7F0E046E04ECF4
:107BB60036F0400EAFEC34F0C20E036E7F0E046E4C
:107BC60004EC36F0150E236E4B0E226EBE0EE82E1A
:107BD600FED7222EFCD7232EFAD700D01200A3EC14
:107BE60034F0E70E036E7F0E046E04EC36F0000EE2
:107BF6000101A36F000EA26F1BD1060EAFEC34F08D
:107C06008C0E0D6E010E0E6EF90E0F6E7F0E106E3F
:107C1600010E0101A225116E000EA321126EC4EC05
:107C260038F08C0E036E010E046E04EC36F0FC0E7A
:107C3600036E7F0E046E04EC36F0640E036E010EC6
:107C4600046E04EC36F0610E93EC34F0780E0D6E93
:107C5600010E0E6EF90E0F6E7F0E106ED89001019A
:107C6600A235D96EA335DA6E000ED926010EDA22B8
:107C7600DECF22F0DDCF23F02D0E2224116EFF0E73
:107C86002320126EC4EC38F0000E0101A16F000E25
:107C9600A06F21D0020E236E040E226EBA0EE82EBD
:107CA600FED7222EFCD7232EFAD700D0780E01015C
:107CB600A025D96E010EA121DA6EDF5093EC34F0C7
:107CC600780E0101A025D96E010EA121DA6E000EF3
:107CD600DF6EA04BA12B780EA025D96E010EA12137
:107CE600DA6EDF50D8A4D6D7020E236E040E226EAB
:107CF600BA0EE82EFED7222EFCD7232EFAD700D0B6
:107D0600610E93EC34F0400EAFEC34F0DC0E036EF3
:107D16007E0E046E04EC36F00CD068EC39F00101EE
:107D2600A76F420EA719D8A404D0730E93EC34F0B3
:107D360005D08BEC34F00009D8B4EFD7420E010120
:107D4600A719D8B46FD08FEC34F0640AD8A415D034
:107D5600400EAFEC34F0030E036E7F0E046E04EC9F
:107D660036F0150E236E4B0E226EBE0EE82EFED793
:107D7600222EFCD7232EFAD713D0A3EC34F0130E01
:107D8600036E7F0E046E04EC36F0150E236E4B0E5A
:107D9600226EBE0EE82EFED7222EFCD7232EFAD751
:107DA60000D0000E0101A76FA451226E236A225053
:107DB600A25DA351800A246E2350800A2458D8B0AD
:107DC6002CD0A451226E236A010EA225246E000E29
:107DD600A321256E225024180EE123502518D8A47D
:107DE6000AD0400EAFEC34F0790E036E7F0E046EAF
:107DF60004EC36F012D0400EAFEC34F0420E036EB7
:107E06007F0E046E04EC36F008D068EC39F0010100
:107E1600A76F420EA719D8B405D0410E0101A719C4
:107E2600D8A4F3D7420EA719D8B40FD0A24BA32BD0
:107E3600A451226E236A2250A25DA351800A246EA9
:107E46002350800A2458D8A0D8D6420EA719D8A401
:107E56001AD08FEC34F0650AD8A4FBD7A3EC34F023
:107E6600860E036E7F0E046E04EC36F0150E236E3E
:107E76004B0E226EBE0EE82EFED7222EFCD7232EE8
:107E8600FAD700D01200A3EC34F0930E036E7F0EE7
:107E9600046E04EC36F0150E236E4B0E226EBE0EEB
:107EA600E82EFED7222EFCD7232EFAD700D01200BA
:107EB6000001000A006400E8031027202020312971
:107EC60054726162616A6F20322943616C69627221
:107ED6006163696F6E004D6F7669656E646F2E2EF5
:107EE6002E20202020202020202000456C696A6159
:107EF60020756E20436F6D616E646F3A004C697336
:107F0600746F20202020202020202020004572721F
:107F16006F7221202020202020202020004C696D17
:107F260069746520657863656469646F00496E6786
:107F360072657365204E756D65726F00536967755E
:107F460069656E7465202841290043616C69627217
:107F5600616E646F2E2E2E002020204269656E769B
:107F6600656E69646F0043616C6962726163696F13
:107F76006E21005465726D696E6172202841290078
:107F860043616E63656C61646F2E2E2E00546572BC
:107F96006D696E61646F2E2E2E0044697374616E76
:107FA6006369613A200044697374616E6369613A7A
:107FB60000646520436F727465733A0043616E63B3
:107FC600656C616461004F7065726163696F6E0014
:107FD600456A65637574617200457869746F73618B
:107FE60000436F72746520004572726F7221002023
:097FF6006D6D002564002F0000F0
:020000040020DA
:08000000FFFFFFFFFFFFFFFF00
:020000040030CA
:0E00000000093900FF0181FF0FC00FE00F4023
:00000001FF
