:04000000B8EF05F060
:10080000004C6973746F00000FC013F010C014F037
:1008100011C015F012C016F0060ED890133614361B
:1008200015361636E82EF9D7131E141E151E161E81
:10083000132A000E142215221622000E1324016E14
:10084000120E1420026E7A0E1520036E000E162072
:10085000046E0FC017F010C018F011C019F012C0CC
:100860001AF0060ED8901736183619361A36E82EB2
:10087000F9D717C005F018C006F019C007F01AC064
:1008800008F09DEC04F001C01BF002C01CF01C0439
:10089000D8A044D00FC013F010C014F011C015F050
:1008A00012C016F0040ED8901336143615361636CC
:1008B000E82EF9D7131E141E151E161E132A000E3D
:1008C000142215221622000E1324016E120E14207B
:1008D000026E7A0E1520036E000E1620046E0FC0F5
:1008E00017F010C018F011C019F012C01AF0040E61
:1008F000D8901736183619361A36E82EF9D717C099
:1009000005F018C006F019C007F01AC008F09DECF9
:1009100004F001C01BF002C01CF0AC841C04D8B071
:100920000AD01BC0AFFFAC98AB8E948E948CAB8872
:10093000AC8A010E1200000E1200000E0A6E08AE04
:100940000AD0081E071E061E056C000E062207228E
:100950000822010E0A6E04AE0AD0041E031E021EF7
:10096000016C000E022203220422010E0A1A000E5C
:100970000B6E000E0C6E000E0D6E000E0E6E05500E
:10098000061007100810D8B42AD0010E096E06D040
:10099000D8900536063607360836092A08AEF8D745
:1009A000D8900B360C360D360E360550015C0650CD
:1009B00002580750035808500458D8A009D00550D1
:1009C000015E0650025A0750035A0850045A0B8021
:1009D000D8900832073206320532092EE1D70A5084
:1009E000D8B408D00E1E0D1E0C1E0B6C000E0C226F
:1009F0000D220E220BC001F00CC002F00DC003F05E
:100A00000EC004F012007E0ED36E000E936E959011
:100A100095926CEC05F0800E0F6E250E106E000E98
:100A2000116E000E126E04EC04F00009D8B406D06A
:100A3000010E036E080E046E47EC05F00B0E1E6EE1
:100A4000260E1D6E5E0EE82EFED71D2EFCD71E2E26
:100A5000FAD7ACEC05F0C1EC05F00009D8B4FBD72F
:100A6000BDEC05F01F6E0BD0ACEC05F0F4D7400EDA
:100A70009EEC05F0F0D71F5080EC05F0ECD71F502E
:100A80000D0AD8B4F4D7720AD8B4EED7F4D7000E52
:100A9000086E000E076E10D007500324056E085034
:100AA0000420066E05C0F6FF06C0F7FF0800F550EB
:100AB00080EC05F0074A082A07500324056E085009
:100AC0000420066E05C0F6FF06C0F7FF0800F550CB
:100AD0000009D8B41200E0D7820E036EDE0EE82EB5
:100AE000FED7032EFCD7380E8FEC05F00F0E8FECDF
:100AF00005F0020E8FEC05F0010E8FEC05F01200F0
:100B0000026E02C08AFF8C828C801A0E016EF80E73
:100B1000E82EFED7012EFCD700D08C901200026E7A
:100B200002C08AFF8C928C801A0E016EF80EE82E9D
:100B3000FED7012EFCD700D08C901200046E04501A
:100B400080098FEC05F0060E036E300EE82EFED7FE
:100B5000032EFCD700D01200010E8FEC05F0060E1C
:100B6000036E300EE82EFED7032EFCD700D0120005
:100B7000000EF86E000103EF05F09EAAFED7AE50FE
:0A0B80001200000E9EBA010E1200D2
:020000040020DA
:08000000FFFFFFFFFFFFFFFF00
:020000040030CA
:0E00000000093900FF0181FF0FC00FE00F4023
:00000001FF
