:0400000085EF0BF08D
:0F0800000001000A006400E803102725640000CF
:10081000000E3D6E000E3C6E000E3E6E000E3F6EF2
:10082000000E406E000E426E000E416E000E436ED2
:10083000000E446E000E456E000E376E180E386EB8
:100840003F0E396E000E346E000E336E000E466E93
:100850007E0ED36E9586958495929590800E0F6E40
:10086000250E106E000E116E000E126EB4EC07F025
:1008700096EC0BF00009D8A4F4D1FAD7000E3E6E26
:10088000000E3F6E000E406E83800AD075EC0BF0B8
:100890000009D8B403D0010E466E04D04FEC0BF023
:1008A00083A4F4D783904650D8B41FD088D075EC79
:1008B0000BF00009D8B403D0010E466E18D04FECEF
:1008C0000BF03EC018F03FC019F040C01AF037C01E
:1008D0001BF038C01CF039C01DF03AEC06F018C00F
:1008E0003EF019C03FF01AC040F083A6E0D7465052
:1008F000D8A465D0640E8CEC0BF03EC01AF03FC05B
:100900001BF040C01CF0BBEC0AF0290E106E000E6C
:10091000116E0B0E126E080E136E3EC001F03FC03A
:1009200002F040C003F04AEC08F0360E0124146EC9
:10093000010E0220156E10EC07F0000E3B6E000E4B
:100940003A6E1FD0020E256E040E246EBA0EE82EEB
:10095000FED7242EFCD7252EFAD700D0290E3A2414
:10096000D96E000E3B20DA6EDF508CEC0BF0290EB6
:100970003A24D96E000E3B20DA6E000EDF6E3A4A42
:100980003B2A290E3A24D96E000E3B20DA6EDF5046
:10099000D8A4D8D7020E256E040E246EBA0EE82E07
:1009A000FED7242EFCD7252EFAD700D0640E8CEC6F
:1009B0000BF03EC043F03FC044F040C045F046500D
:1009C000D8B44CD1650E8CEC0BF048D1000E3D6EC6
:1009D000000E3C6E000E426E000E416E290E3C244D
:1009E000D96E000E3D20DA6E92EC0BF0DF6E3C4AC1
:1009F0003D2AFF0E246EFF0E256E3CC026F03DC042
:100A000027F02450262625502722290E2624D96E89
:100A1000000E2720DA6E610EDE18D8A4DFD7FF0E95
:100A2000246EFF0E256E3CC026F03DC027F02450FA
:100A3000262625502722290E2624D96E000E27208F
:100A4000DA6E000EDF6E000E366E000E356E1ED0B2
:100A500041C001F042C002F0000E046E0A0E036EA7
:100A600062EC0BF0290E3524D96E000E3620DA6EBA
:100A7000DF50246E24500126000E0222D00E0124E5
:100A8000416EFF0E0220426E354A362A290E352469
:100A9000D96E000E3620DA6EDF50D8A4D9D741C007
:100AA00009F042C00AF033EC0BF009C00DF00AC0A7
:100AB0000EF00BC00FF043C010F044C011F045C061
:100AC00012F0FBEC09F0D8B005D08380000E346E34
:100AD000000E336E43C00DF044C00EF045C00FF061
:100AE00041C009F042C00AF033EC0BF009C010F02D
:100AF0000AC011F00BC012F0FBEC09F0D8B08FD097
:100B00008390000E346E010E336E89D04FEC0BF0E3
:100B100043C018F044C019F045C01AF0000E0C6E26
:100B2000800E0D6E3F0E0E6E37C009F038C00AF011
:100B300039C00BF0C4EC08F009C01BF00AC01CF06F
:100B40000BC01DF03AEC06F018C043F019C044F099
:100B50001AC045F075EC0BF00009D8B403D0010EB3
:100B6000466E6CD043C00DF044C00EF045C00FF08F
:100B700041C009F042C00AF033EC0BF009C010F09C
:100B80000AC011F00BC012F0FBEC09F0D8B056D03F
:100B9000BDD74FEC0BF043C018F044C019F045C06E
:100BA0001AF0000E0C6E800E0D6EBF0E0E6E37C06A
:100BB00009F038C00AF039C00BF0C4EC08F009C0E5
:100BC0001BF00AC01CF00BC01DF03AEC06F018C078
:100BD00043F019C044F01AC045F075EC0BF0000961
:100BE000D8B403D0010E466E16D041C009F042C001
:100BF0000AF033EC0BF009C00DF00AC00EF00BC088
:100C00000FF043C010F044C011F045C012F0FBECEF
:100C100009F0D8A0BED783904FEC0BF00FD033C0B3
:100C200024F034C025F02550000AD8A407D0245061
:100C3000000AD8B4DAD7010AD8B494D7000E346EBB
:100C4000000E336E4650D8A403D0640E8CEC0BF02B
:100C50004650D8B403D0650E8CEC0BF0000E466EF7
:100C600007D692EC0BF0610AD8B4B0D6020AD8B419
:100C700005D6FED51AC01EF01F6A206A19341E362A
:100C800001E31F801E50236E1DC01EF01F6A206AE4
:100C90001C341E3601E31F801E50226E2350D8B430
:100CA0000BD02250235CD8B00ED023500008222451
:100CB0001E6E180E1E6407D01BC018F01CC019F061
:100CC0001DC01AF012002250D8B40BD02350225C61
:100CD000D8B00ED02250000823241E6E180E1E64B9
:100CE00007D018C018F019C019F01AC01AF0120075
:100CF000060E216E1ABE218E1DBE218C198EFF0E8E
:100D00001816FF0E1916000E1A161C8EFF0E1B1653
:100D1000FF0E1C16000E1D162250235CD8B01BD0EF
:100D2000D8901B361C361D36220623502218D8B404
:100D30000DD0210621C01EF0070E1E16D8B406D015
:100D4000EFD7D8901A3219321832232A225023189A
:100D5000D8B41FD0F6D72350225CD8B01AD0D89080
:100D6000183619361A36230623502218D8B40DD057
:100D7000210621C01EF0070E1E16D8B406D0EFD7EC
:100D8000D8901D321C321B32222A22502318D8A49C
:100D9000F7D721AE0CD0FF0E181AFF0E191AFF0E4E
:100DA0001A1A010E1826000E1922000E1A2221AC62
:100DB0000CD0FF0E1B1AFF0E1C1AFF0E1D1A010E7F
:100DC0001B26000E1C22000E1D22000E216E185044
:100DD0001B2619501C221A501D221DAE0ED0FF0ECC
:100DE0001B1AFF0E1C1AFF0E1D1A010E1B26000EE9
:100DF0001C22000E1D22010E216E1BC001F01CC022
:100E000002F01DC003F023C004F021C005F0A4ECE3
:100E100009F001C018F002C019F003C01AF0120066
:100E2000140E176E000E186E8CD0250E1D18D8B437
:100E300009D010C0D9FF11C0DAFF1DC0DFFF104A72
:100E4000112A7FD0000E196E12C0F6FF13C0F7FFF3
:100E5000124A132A0800F5CF1DF01D50000AD8B41D
:100E60007CD0640AD8B403D00D0AD8A46AD017C0C5
:100E7000D9FF18C0DAFFDECF1BF0DDCF1CF0020E69
:100E80001726000E18221CAE06D0030E19121B6C7A
:100E90001C1ED8B01C2A010E1D6E050E1D18D8B4DC
:100EA00012D01D50020D010EF324F66E080EF42030
:100EB000F76E0900F5501B5C0900F5501C58D8A0CE
:100EC00002D01D2AEAD719C016F0030E1616D8B4A0
:100ED00008D010C0D9FF11C0DAFF2D0EDF6E104A06
:100EE000112A1DC01AF029D01A50020D010EF32448
:100EF000F66E080EF420F76E0900F5CF03F00A0035
:100F0000F5CF04F01BC001F01CC002F0E9EC0AF0C0
:100F100001C008F002C009F0000E0B6E0A0E0A6E46
:100F200012EC0BF00850300F1D6E10C0D9FF11C02D
:100F3000DAFF1DC0DFFF104A112A1A061A28D8A4AA
:100F4000D3D712C0F6FF13C0F7FF124A132A0800C6
:100F5000F5CF1DF01D50D8A468D710C0D9FF11C01F
:100F6000DAFF000EDF6E12000FC013F010C014F095
:100F700011C015F012C016F0060ED89013361436B4
:100F800015361636E82EF9D7131E141E151E161E1A
:100F9000132A000E142215221622000E1324016EAD
:100FA000120E1420026E7A0E1520036E000E16200B
:100FB000046E0FC017F010C018F011C019F012C065
:100FC0001AF0060ED8901736183619361A36E82E4B
:100FD000F9D717C005F018C006F019C007F01AC0FD
:100FE00008F03EEC09F001C01BF002C01CF01C042C
:100FF000D8A044D00FC013F010C014F011C015F0E9
:1010000012C016F0040ED890133614361536163664
:10101000E82EF9D7131E141E151E161E132A000ED5
:10102000142215221622000E1324016E120E142013
:10103000026E7A0E1520036E000E1620046E0FC08D
:1010400017F010C018F011C019F012C01AF0040EF9
:10105000D8901736183619361A36E82EF9D717C031
:1010600005F018C006F019C007F01AC008F03EECF1
:1010700009F001C01BF002C01CF0AC841C04D8B005
:1010800012001BC0AFFFAC98AB8E948E948CAB88D3
:10109000AC8A120003C005F0066A076A02340536FE
:1010A00001E3068005500F6E0F50D8A409D0000E42
:1010B000016E000E026E000E036E000E046E120032
:1010C000170E056E01C006F002C007F003C008F05D
:1010D0000528096E04D0D890083207320632092E4E
:1010E000FAD706500A6E028EFF0E0116FF0E021688
:1010F000000E031601500B6E02500C6E03500D6E65
:101100000E6A8E0E0F5E0FAE16D00F50800A8F0F34
:10111000D8B009D0000E016E000E026E000E036EF4
:10112000000E046E1200D8900E320D320C320B32CB
:101130000F3EF9D715D0170E0F640FD0000E016EB9
:10114000000E026E000E036E000E046E1200D890A8
:101150000B360C360D360E360F060F50D8A4F7D7C7
:101160000A50D8B408D00E1E0D1E0C1E0B6C000EBB
:101170000C220D220E220BC001F00CC002F00DC09B
:1011800003F00EC004F012000BC00FF0106A116AD9
:101190000A340F3601E310800F50126E1250D8A49B
:1011A00007D0000E096E000E0A6E000E0B6E1200C4
:1011B0000EC00FF0106A116A0D340F3601E3108073
:1011C0000F50176E1750D8A407D0000E096E000EEE
:1011D0000A6E000E0B6E120017507B0F12260BC00A
:1011E00017F00E50171A800E17160A8E0D8EFF0E6E
:1011F0000C16FF0E0D16000E0E16000E136E000ECE
:10120000146E000E156E070E166E09A006D00C5057
:1012100013260D5014220E501522D8900B320A328C
:101220000932D8900C360D360E36162EEED7090E32
:10123000166E09A006D00C5013260D5014220E5025
:101240001522D8900B320A320932D8901532143256
:101250001332162EEED713C001F014C002F015C0E1
:1012600003F012C004F017C005F0A4EC09F001C0AF
:1012700009F002C00AF003C00BF01200000E0A6E63
:1012800008AE0AD0081E071E061E056C000E0622B8
:1012900007220822010E0A6E04AE0AD0041E031EA5
:1012A000021E016C000E022203220422010E0A1A01
:1012B000000E0B6E000E0C6E000E0D6E000E0E6E0C
:1012C0000550061007100810D8B42AD0010E096E78
:1012D00006D0D8900536063607360836092A08AEF5
:1012E000F8D7D8900B360C360D360E360550015C0B
:1012F000065002580750035808500458D8A009D087
:101300000550015E0650025A0750035A0850045A0D
:101310000B80D8900832073206320532092EE1D709
:101320000A50D8B408D00E1E0D1E0C1E0B6C000EF9
:101330000C220D220E220BC001F00CC002F00DC0D9
:1013400003F00EC004F012000450D8B405D00150D0
:1013500002100310D8A40CD0000E016E000E026E15
:10136000000E036E1200042AD890033202320132BA
:10137000000E0114066E000E0214076EFE0E03141A
:10138000086E065007100810D8B40CD0ECD7042A09
:10139000010E0126000E0222000E0322D890033215
:1013A00002320132000E0114066E000E0214076EA6
:1013B000FF0E0314086E065007100810D8B406D0AC
:1013C000E6D70406D89001360236033602BE03D0B3
:1013D000020E0460F6D704A0029ED8900432045096
:1013E00003120550D8A4038E01C001F002C002F020
:1013F00003C003F012000FAE16D00DC013F00EC0E4
:1014000014F00FC015F0131E141E151E132A000E23
:1014100014221522000E13240D6E000E14200E6EE1
:10142000800E15200F6E12AE16D010C013F011C032
:1014300014F012C015F0131E141E151E132A000EF0
:1014400014221522000E1324106E000E1420116EAB
:10145000800E1520126E000E0D1A000E0E1A800E50
:101460000F1A000E101A000E111A800E121A1050C8
:101470000D5C11500E5812500F58D8B002D0D890B1
:101480001200D8801200015002100310D8A409D015
:1014900004C0D9FF05C0DAFF000EDE6E000EDD6E5F
:1014A000120003507F0B066E076AD8900636073687
:1014B00004C0D9FF05C0DAFF06C0DEFF07C0DDFFAC
:1014C00002AE03D0066A062A01D0066A065004C09E
:1014D000D9FF05C0DAFFDE12000EDD1204C0D9FF0D
:1014E00005C0DAFF820EDE26FF0EDD2203800382B6
:1014F000038403860388038A039C029E1200000E65
:10150000196E8E0E186E13AE11D0131E121E111E00
:10151000106C000E112212221322010E196E06D039
:10152000D8901332123211321032182A000E1014D1
:10153000146E000E1114156E000E1214166EFF0EAE
:101540001314176E1450151016101710D8A4E8D7DE
:1015500010C001F011C002F012C003F018C004F076
:1015600019C005F0A4EC09F001C010F002C011F0A0
:1015700003C012F012001AC001F01BC002F01CC020
:1015800003F0200E046E000E056E43EC0AF021BE3F
:10159000120021501DE1150E205CD8B012001AC0B7
:1015A00001F01BC002F01CC003F04AEC08F001C0BF
:1015B00010F002C011F003C012F004C013F07FEC71
:1015C0000AF010C01DF011C01EF012C01FF0120072
:1015D0001200000E066E000E056E03500410D8B403
:1015E0001CD0010E076E04D0D89003360436072AAB
:1015F00004AEFAD7D890053606360350015C045085
:101600000258D8A005D00350015E0450025A05804C
:10161000D89004320332072EEDD705C001F006C082
:1016200002F012000A500B10D8B418D0010E0C6E44
:1016300004D0D8900A360B360C2A0BAEFAD70A50D3
:10164000085C0B500958D8A004D00A50085E0B5013
:10165000095AD8900B320A320C2EF1D708C008F084
:1016600009C009F01200000E0C6E0AAE06D0096C1B
:101670000A1ED8B00A2A010E0C6E09C001F00AC079
:1016800002F0036A8E0E046E0CC005F0A4EC09F0A3
:1016900001C009F002C00AF003C00BF012008382FF
:1016A000040E016E1C0EE82EFED7012EFCD700D0D2
:1016B0008392040E016E1C0EE82EFED7012EFCD77D
:1016C00000D0120001500302F3CF05F0F4CF06F072
:1016D00001500402F350062602500302F35006267E
:1016E00005C001F006C002F0120096EC0BF00009F4
:1016F000D8B409D092EC0BF0730AD8A402D0010E32
:101700001200000E1200000E1200486A476A000E16
:10171000F86E000108EF04F0016EACA2FED701C024
:10172000ADFF12009EAAFED7AE501200000E9EBA68
:04173000010E120094
:020000040020DA
:08000000FFFFFFFFFFFFFFFF00
:020000040030CA
:0E00000000093900FF0181FF0FC00FE00F4023
:00000001FF
